S019000053657269616C54657374576974685553422E7372656385
S1130000CBC00000E5C00000E3C00000E1C0000078
S1130010DFC00000DDC00000DBC00000D9C000006C
S1130020D7C00000C1C10000D3C000000C94FD097A
S1130030CFC00000CDC00000CBC00000C9C000008C
S1130040C7C00000C5C00000C3C00000E0C100007C
S1130050BFC00000BDC00000BBC00000AFC10000B5
S1130060B7C00000B5C00000B3C00000B1C00000BC
S1130070AFC000003A034C00550046004100200088
S11300804D006F00750073006500200061006E0074
S1130090640020004B006500790062006F0061007D
S11300A0720064002000440065006D006F000000D1
S11300B018034400650061006E00200043006100E5
S11300C06D00650072006100000004030904090268
S11300D03B00020100C032090400000103010100D9
S11300E009211101000122400007058103080005D0
S11300F00904010001030102000921110100012288
S11301003C000705830308000512011001000000EC
S113011008EB034D2001000102000105010906A1BD
S113012001050719E029E7150025017501950881E6
S113013002950175088101050819012905950575C0
S1130140019102950175039101150026FF00050731
S1130150190029FF950675088100C005010902A14F
S1130160010901A1000509190129031500250195BB
S113017003750181029501750581010501093009A5
S11301803109381680FF267F003680FF467F0095B0
S11301900375088102C0C00011241FBECFEFD2E056
S11301A0DEBFCDBF11E0A0E0B1E0E2EBF8E102C0B8
S11301B005900D92A032B107D9F721E0A0E2B1E099
S11301C001C01D92AF3CB207E1F79CD20C94570CCE
S11301D017CF292F332723303105D1F03CF42130B8
S11301E0310561F02230310571F050C02132310502
S11301F059F12232310509F438C048C082E190E057
S113020029E031E056C08BE390E02EEC30E051C0A1
S113021099278130910561F08230910579F0892B1D
S113022009F039C0EAECF0E0849190E09F0141C00C
S1130230E0EBF0E0849190E09F013BC0E4E7F0E064
S1130240849190E09F0135C06115710521F0613002
S1130250710531F025C089E090E020EE30E029C03E
S113026089E090E029EF30E024C06115710521F0A8
S11302706130710531F019C080E490E02BE131E088
S113028018C08CE390E02BE531E013C080E090E0EF
S113029020E030E00EC080E090E020E030E009C0D3
S11302A080E090E020E030E004C080E090E020E0D6
S11302B030E0FA01318320830895CF93DF931F92B6
S11302C0CDB7DEB78091CE008983ECE2F1E0918175
S11302D08081228130E021503109482F50E04217BB
S11302E0530711F08F5F01C080E0981739F17981CD
S11302F0ECE2F1E060E091818081482F50E0241726
S1130300350711F08F5F01C0862F9817A1F3ECE237
S1130310F1E08081A381B481A80FB11D7C93208179
S1130320422F50E0828190E001974817590711F05D
S11303302F5F01C020E020932C0105C08091230190
S11303408F5F809323010F90DF91CF910895809167
S11303502001909121018A30910530F40196909307
S113036021018093200108951C990DC080912401DE
S113037090912501892B99F481E090E090932501D7
S1130380809324010CC08091240190912501019750
S113039031F482E090E0909325018093240110923F
S11303A021011092200108951F920F920FB60F920F
S11303B011240F900FBE0F901F9018951F920F924B
S11303C00FB60F9211242F933F934F935F936F9324
S11303D07F938F939F93AF93BF93EF93FF93E0919A
S11303E0B301F091B401309709F00995FF91EF91B1
S11303F0BF91AF919F918F917F916F915F914F9139
S11304003F912F910F900FBE0F901F9018951F9240
S11304100F920FB60F9211242F933F934F935F9334
S11304206F937F938F939F93AF93BF93EF93FF93B8
S1130430E091B101F091B201309709F00995FF9173
S1130440EF91BF91AF919F918F917F916F915F9148
S11304504F913F912F910F900FBE0F901F901895C1
S1130460CF93DF93CDB7DEB769970FB6F894DEBFAD
S11304700FBECDBF2FEF29B920E82AB91092CD00C5
S1130480ECECF0E026E6208329E120832EE02093A3
S1130490CA0028E92093C9009093B4018093B30162
S11304A01D8A1E8A80E48F8B21E731E0398F288FE3
S11304B095E0FE017596DE011B9601900D929A95CA
S11304C0E1F795E0FE013B96DE01509601900D9216
S11304D09A95E1F795E0FE017096ACE2B1E00190E7
S11304E00D929A95E1F71D8A1E8A8F8B81E391E024
S11304F0998F888F85E0FE017596DE011196019033
S11305000D928A95E1F785E0FE013196DE0116969B
S113051001900D928A95E1F785E0FE013696A7E2F7
S1130520B1E001900D928A95E1F780EE84B9699665
S11305300FB6F894DEBF0FBECDBFDF91CF91089503
S1130540CF93DF93EC01862F662379F1ECE2F1E09F
S113055021819081291307C080E027C021819081E7
S1130560291305C021C040E0ECE2F1E060E0218104
S113057090812917E1F39181A381B481A90FB11D61
S11305805C919181A92FB0E0228130E021503109A2
S1130590A217B30711F09F5F01C0962F918359935F
S11305A04F5F4813DBCF01C0842FDF91CF910895B3
S11305B00F931F93CF93DF93EC016623E9F180E05F
S11305C050E0E7E2F1E010E0712F41819081228157
S11305D030E021503109A92FB0E0A217B30711F080
S11305E09F5F01C0912F491719F1088141819081C2
S11305F0A92FB0E02A173B0711F09F5F01C0972F86
S11306004917A1F39081A381B481A90FB11D0C9363
S11306109081A92FB0E0228130E021503109A21746
S1130620B30711F09F5F01C0912F908321968F5FD4
S11306305F5F5613CACF01C080E0DF91CF911F9155
S11306400F9108951F93CF93DF93E7E2F1E0918137
S11306508081981729F110E0A8ECB0E04EEC50E04E
S1130660918180819817E1F38181C381D481C80F7E
S1130670D11D38812181622F70E0828190E0019741
S11306806817790711F02F5F01C0212F21838C9106
S113069085FFFDCFEA013883918180819813E0CFF3
S11306A0DF91CF911F9108959093B2018093B1018E
S11306B022E024BD65BD47BD20936E0025BB08958F
S11306C08DE591E0CDDE4AEF63E087EA91E0ECCF7F
S11306D0089584B7877F84BF0FB6F894A895809156
S11306E06000886180936000109260000FBE90E00B
S11306F080E80FB6F89480936100909361000FBE78
S11307006CC60895CF93DF931F92CDB7DEB7E1DFB8
S1130710D7DF78948091220181111AC0F89461E0A6
S1130720CE0101960DDF813029F461E0CE010196FE
S11307303FDF88DF789480E191E0E5D180E091E0CB
S1130740E2D10E94200C7EDF80912201882331F3C4
S113075080E090E00F90DF91CF910895089508957F
S113076080E191E0BCD180E091E0B9D1E2EEF0E02B
S1130770808184608083089580E191E049D080E0A5
S113078091E046C0089580911E0190911F01009749
S113079029F0019790931F0180931E0180910E010F
S11307A090910F01009729F0019790930F01809386
S11307B00E0108950F931F938051914081F485B1E8
S11307C09091B501911105C091E09093B5018064B9
S11307D003C08F7B1092B50185B980E015C080916C
S11307E02401813039F484E6F9018183828381E034
S11307F0838304C0823011F41092240184E090E0D9
S1130800F8019183808381E01F910F9108950895E9
S11308103F924F925F926F927F928F929F92AF928C
S1130820BF92CF92DF92EF92FF920F931F93CF93D9
S1130830DF9300D000D0CDB7DEB76C01EDB6FEB6C5
S11308408091E80083FF30C1F601808190E020911F
S1130850CB013091CC012817390709F025C18091CB
S1130860C801833009F4AAC030F4813071F08230B9
S113087009F4F6C019C18A3009F4D5C08B3009F4E3
S1130880BEC0893009F010C15BC08091C701813AB4
S113089009F00AC1ADB6BEB61A821982E7ECF1E0DE
S11308A0828113818B83F6018085482F50E08DB7B8
S11308B09EB7841B950B0FB6F8949EBF0FBE8DBFD9
S11308C0EDB7FEB731964F0160E070E0CF01E8D795
S11308D04FEF410F8E010F5F1F4F9401BE016D5FFB
S11308E07F4FC60167DFF60186819781009721F06B
S11308F0408550E0B401CBD71092E900E8EEF0E077
S11309008081877F80838B81882359F08C838093B7
S1130910F10080912601882321F061E0CE01049644
S113092047DE69817A81C4012AD2E8EEF0E0808151
S11309308B7780830FB6F894BEBE0FBEADBEB4C035
S11309408091C701813209F0AFC06DB67EB6E7EC85
S1130950F1E006811781528043808DB79EB7801BDA
S1130960910B0FB6F8949EBF0FBE8DBFEDB7FEB7C7
S113097031964F010F2EF8EEAF2EB12CF02DF5016C
S11309808081877F8083B801C401A5D2F50180816D
S11309908E77808321E0511001C020E030E0021BFB
S11309A0130B280D391D4FEF440D652DC6012FDFA4
S11309B00FB6F8947EBE0FBE6DBE76C08091C7019F
S11309C0813A09F071C0E8EEF0E08081877F80838E
S11309D0808180FFFDCFF60181858B838093F100B8
S11309E080912601882321F061E0CE010396E0DDA9
S11309F0E8EEF0E080818E77808357D455C08091F3
S1130A00C701813209F050C0E8EEF0E08081877FB1
S1130A1080834BD49091C90181E0911101C080E0A1
S1130A20F601818741C08091C701813209F03CC041
S1130A30E8EEF0E08081877F808337D48091C9011C
S1130A409091CA0188270024880F991F001C880FE1
S1130A50991F001C892F902DF6019587848724C047
S1130A608091C701813A01F5E8EEF0E08081877F4B
S1130A708083808180FFFDCFF601848595859695DE
S1130A8087959695879589838093F10080912601B7
S1130A90882321F061E0CE0101968ADDE8EEF0E0E2
S1130AA080818E77808301D40FB6F894FEBE0FBE8A
S1130AB0EDBE0F900F900F900F90DF91CF911F918B
S1130AC00F91FF90EF90DF90CF90BF90AF909F90E9
S1130AD08F907F906F905F904F903F900895FC01AE
S1130AE0399627E0DF011D922A95E9F721E0FC0100
S1130AF0218724EF31E03587248723E0248361E0D4
S1130B0001965EC308955F926F927F928F929F9237
S1130B10AF92BF92CF92DF92EF92FF920F931F9307
S1130B20CF93DF9300D000D0CDB7DEB77C01ADB654
S1130B30BEB68091C601843009F094C08091E4006F
S1130B409091E500F701228533852817390709F4C8
S1130B5089C081818F708093E9008091E80085FFCE
S1130B6081C08DB69EB6408550E08DB79EB7841B7C
S1130B70950B0FB6F8949EBF0FBE8DBFEDB7FEB7B1
S1130B8031966F011C821A82198260E070E0CF01F5
S1130B9087D68E010F5F1F4F960140E0BE016C5F48
S1130BA07F4FC70107DE582EF70184859585892B71
S1130BB041F081E026853785232B09F080E0782EEB
S1130BC001C0712CF701068117810115110589F007
S1130BD049815A81B801C6014DD666246394892B94
S1130BE009F4612CF701408550E0B601C8014FD6E5
S1130BF001C0612C89819A81892B41F1511004C073
S1130C00611002C070FE22C0F70184859585978724
S1130C10868781818F708093E9008C81882359F0C5
S1130C208B838093F10080912601882321F061E079
S1130C30CE010396BDDC69817A8140E050E0C601B3
S1130C402AD0E8EEF0E080818E7780838091E40002
S1130C509091E500F701938782870FB6F8949EBEC2
S1130C600FBE8DBE0FB6F894BEBE0FBEADBE0F90C4
S1130C700F900F900F90DF91CF911F910F91FF90E4
S1130C80EF90DF90CF90BF90AF909F908F907F9028
S1130C906F905F9008956F927F928F929F92AF9220
S1130CA0BF92CF92DF92EF92FF920F931F93CF9355
S1130CB0DF931F92CDB7DEB77C018B013A0119D3C4
S1130CC081114DC06114710439F0F3018081918167
S1130CD0081B190BE80EF91E0115110509F43EC095
S1130CE0A12CB12C0F2EF8EECF2ED12CF02D0F2EDF
S1130CF0F1EF8F2E912CF02DF601808185FD14C02B
S1130D0080818E7780839CD56114710449F0F3014E
S1130D1080819181A80EB91EB182A08285E01FC096
S1130D20E8D28823B1F01BC0F70180818983F401E4
S1130D30808380912601882321F061E0CE01019611
S1130D4037DCFFEFEF1AFF0A015011098FEFA81AE1
S1130D50B80A0115110581F680E001C080E00F900A
S1130D60DF91CF911F910F91FF90EF90DF90CF9083
S1130D70BF90AF909F908F907F906F9008955F92F7
S1130D806F927F928F929F92AF92BF92CF92DF9297
S1130D90EF92FF920F931F93CF93DF931F92CDB7E0
S1130DA0DEB7E090CD01F090CE01E616F70658F0DC
S1130DB06115710539F4E8EEF0E020812E77208387
S1130DC07B0101C07B0130E008EE10E00F2EF2EF52
S1130DD06F2E712CF02D0F2EF1EF8F2E912CF02D04
S1130DE0512C45C02091C601222309F458C0253056
S1130DF009F457C0F801208123FD55C0208122FD4C
S1130E0047C0208120FF33C0F301A080B12CE1143E
S1130E10F10419F1F8E0AF16B104F8F4C82ED92E94
S1130E20F60181916F018983F40180838091260109
S1130E30882321F061E0CE010196BADB8C2D9D2D33
S1130E40F1E0EF1AF1082FEFA21AB20AE114F1044B
S1130E5021F0E8E0AE16B10419F731E0F8E0AF167E
S1130E60B10409F0352DF80120812E772083E11497
S1130E70F10409F0B7CF3111B5CF0AC08091C60192
S1130E80882399F0853099F0808183FF03C011C0D5
S1130E90E8EEF0E0808182FFF1CF80E00BC082E0D9
S1130EA009C083E007C081E005C082E003C083E09D
S1130EB001C081E00F90DF91CF911F910F91FF90BE
S1130EC0EF90DF90CF90BF90AF909F908F907F90E6
S1130ED06F905F900895CF93DF936115710529F4A6
S1130EE0E8EEF0E020812B772083A82FB92FE8EEDD
S1130EF0F0E042EF50E021EF30E01AC08091C601EB
S1130F008823A1F18530A1F1808183FD33C08081E4
S1130F1082FFF4CF3BC0E90188818D936150710950
S1130F2021F0EA0188818111F6CF80818B7780835B
S1130F3061157105A1F08091C6018823E9F085301F
S1130F40E9F0808183FD1CC0808182FD1FC0D6CF63
S1130F508091C6018823B1F0853019F415C0E8EEFC
S1130F60F0E0808180FFF4CF80E015C082E013C000
S1130F7083E011C081E00FC082E00DC083E00BC0AC
S1130F8081E009C082E007C083E005C0EA018881EE
S1130F908111C1CFCACFDF91CF9108955F926F9233
S1130FA07F928F929F92AF92BF92CF92DF92EF92F5
S1130FB0FF920F931F93CF93DF931F92CDB7DEB7AA
S1130FC0E090CD01F090CE01E616F70658F06115D9
S1130FD0710539F4E8EEF0E020812E7720837B015F
S1130FE001C07B01C82ED92E90E008EE10E00F2E30
S1130FF0F2EF6F2E712CF02D0F2EF1EF8F2E912C1E
S1131000F02D512C43C08091C601882309F456C0A9
S1131010853009F455C0F801808183FD53C0808177
S113102082FD45C0808180FF31C0F301A080B12CD6
S1131030E114F10409F1F8E0AF16B104E8F4F601A3
S113104084918983F401808380912601882321F08F
S113105061E0CE010196ACDAFFEFCF1ADF0A81E03E
S1131060E81AF108EFEFAE1ABE0AE114F10421F018
S1131070F8E0AF16B10419F791E088E0A816B104BE
S113108009F0952DF80180818E778083E114F104B5
S113109009F0B9CF9111B7CF0AC08091C601882356
S11310A099F0853099F0808183FF03C011C0E8EE88
S11310B0F0E0808182FFF1CF80E00BC082E009C0C4
S11310C083E007C081E005C082E003C083E001C083
S11310D081E00F90DF91CF911F910F91FF90EF90DE
S11310E0DF90CF90BF90AF909F908F907F906F9044
S11310F05F9008958F929F92BF92CF92DF92EF926A
S1131100FF920F931F93CF93DF93853070F126C026
S1131110292F2F70E7012883891731F0E80178819E
S11311202081E401588103C0242F762F5B2D21FFF9
S113113012C03C913E7F3C9330813D7F30833C9193
S113114031603C93E80178832083E4015883E6010D
S11311502881222344F49F5F9530D1F68F708093C9
S1131160E90081E021C080E01FC0982F9F70909318
S1131170E900982F242F762F50E0ABEEB0E0EDEE8F
S1131180F0E00CEE10E00F2EF0EF8F2E912CF02DEE
S11311900F2EFEEECF2ED12CF02D0F2EF9EEEF2ECA
S11311A0F12CF02DB12CC3CFDF91CF911F910F9172
S11311B0FF90EF90DF90CF90BF909F908F90089515
S11311C09F92AF92BF92CF92DF92EF92FF920F93D2
S11311D01F93CF93DF93662309F458C0EC017C017D
S11311E024E0E20EF11C6150262F30E02F5F3F4FC8
S11311F08901000F111F000F111F200F311F8C01D7
S1131200020F131FD12C6894BB24B3F8C12C0F2EEA
S1131210F6E0AF2EF02D6894992491F85881552367
S113122061F1F7019081E981FA81D70111976C91FD
S1131230852F8F70853060F5923010F4492D01C0F0
S11312404A2DE930F10550F02B2D3C2D9D2D9F5F4B
S1131250220F331F2E173F07D0F301C09D2D929507
S1131260907F492B6295660F660F607C551F55274A
S1131270551F652B3FDF882361F02596F5E0EF0EBF
S1131280F11CC017D10751F681E003C081E001C011
S113129080E0DF91CF911F910F91FF90EF90DF904D
S11312A0CF90BF90AF909F9008958091C7018823FD
S11312B044F0E8EEF0E014C08091C601811103C04F
S11312C00895E8EEF0E0808182FFF6CFE8EEF0E0EA
S11312D080818B77808308958091C601882341F0B3
S11312E0808180FFF9CFE8EEF0E080818E77808303
S11312F008950F931F93CF93DF932091E4003091CF
S1131300E50065E6ACEEB0E0E8EEF0E00BEE10E0F0
S113131044EE50E001C09C019C91892F817090FDA6
S11313201DC020C08091C601882381F0853081F0E2
S1131330E801888185FD0EC0EA018881998128171A
S1131340390751F3615039F784E00FC082E00DC0D2
S113135083E00BC081E009C080E007C0808180FF8A
S1131360E1CFFACF908192FFDDCFDF91CF911F9132
S11313700F9108953CD03ED0E8EDF0E080818F7766
S1131380808380818068808380818F7D808384E0F6
S113139089BD86E089BD09B400FEFDCF1092C60167
S11313A01092C2011092C4011092C30142E060E0A5
S11313B080E0A0DEE1EEF0E080818E7F8083E2EECB
S11313C0F0E0808181608083808188608083E0EEAA
S11313D0F0E080818E7F80830895E3E6F0E08081F1
S11313E08E7F808381E08093C501C4CF08951092DD
S11313F0E20008951092E10008951F920F920FB633
S11314000F9211242F933F934F935F936F937F9386
S11314108F939F93AF93BF93EF93FF938091E100DA
S113142082FF0AC08091E20082FF06C0E1EEF0E094
S113143080818B7F8083A7D98091E10080FF15C0D4
S11314408091E20080FF11C0E2EEF0E080818E7FA7
S11314508083808180618083E8EDF0E08081806218
S1131460808319BC1092C6017AD98091E10084FF6F
S11314702FC08091E20084FF2BC084E089BD86E008
S113148089BD09B400FEFDCFE8EDF0E080818F7DD9
S11314908083E1EEF0E080818F7E8083E2EEF0E0F5
S11314A080818F7E80838081816080838091C2016E
S11314B0882321F084E08093C60109C08091E30071
S11314C0882314F081E001C083E08093C60146D9EB
S11314D08091E10083FF1EC08091E20083FF1AC067
S11314E0E1EEF0E08081877F808382E08093C60113
S11314F01092C20180818E7F8083E2EEF0E08081D1
S11315008E7F808380818061808342E060E080E020
S1131510F1DD95D1FF91EF91BF91AF919F918F91A3
S11315207F916F915F914F913F912F910F900FBEDB
S11315300F901F9018950F931F93CF93DF93CDB700
S1131540DEB7AA970FB6F894DEBF0FBECDBFE7ECA7
S1131550F1E02FEC31E0A1EFB0E08C918193E21740
S1131560F307D9F709D98091E80083FF43C1E7EC79
S1131570F1E090818181853009F47FC030F48130BD
S1131580C9F168F08330B1F135C1883009F4F2C093
S1131590893009F40CC1863009F02CC191C090380F
S11315A021F0923809F026C108C08091C3019091BE
S11315B0C401992389F082600FC08091CB018F70A0
S11315C0853008F017C1E9EEF0E080838091EB00EC
S11315D085FB882780F91082E8EEF0E09081977F00
S11315E09083A1EFB0E08C931C9280818E778083EE
S11315F05CDE00C1992309F40CC1923009F0FAC0F1
S11316000DC191E0833009F090E09093C4012CC0A7
S11316108091CB018F709FEF980F943008F0EAC04F
S11316208093E9009091EB0090FF1EC09091C80157
S1131630933031F4EBEEF0E080818062808314C05B
S1131640EBEEF0E090819061908321E030E0A9011D
S113165002C0440F551F8A95E2F7AAEEB0E04C93FE
S11316601C928081886080831092E900E8EEF0E0AB
S11316708081877F808319DEBDC09111BBC010912A
S1131680C9011F77E3EEF0E080818078812B8083AD
S1131690E8EEF0E08081877F808307DEE8EEF0E00B
S11316A0808180FFFDCFE3EEF0E08081806880835D
S11316B0111102C082E001C083E08093C6019AC088
S11316C09058923008F096C08091C9019091CA0157
S11316D08C3D53E0950799F583E08A838AE28983F8
S11316E05FB7F894DE01139620E03EE041E2E32F79
S11316F0F0E040935700849120FF03C082958F70DF
S11317003F5F8F708A3018F090E0C79602C090E077
S1131710C0968D939D932F5F243149F75FBF08EEE8
S113172010E0F8018081877F80836AE270E0CE0157
S1131730019625DBF80180818B7780835BC0609103
S1131740CB017091CC01AE014F5F5F4F0E94E90065
S1131750BC01892B09F44EC008EE10E0F801908119
S1131760977F908389819A8119DCF80180818B7736
S1131770808340C0903809F03DC0E8EEF0E08081FD
S1131780877F80838091C20189838093F100809157
S11317902601882329F061E0CE0101960E94D80237
S11317A0E8EEF0E080818E7780837FDD23C09111A5
S11317B021C08091C9018230E8F4E8EEF0E0808134
S11317C0877F80838091C9018093C2016EDD8091FF
S11317D0C201882321F084E08093C60109C080916E
S11317E0E300882314F081E001C084E08093C60103
S11317F00E94B0038091E80083FF16C0E8EEF0E099
S11318008081877F8083EBEEF0E08081806280833B
S11318100BC09091C901913069F7F3CE8091C90151
S1131820882309F4F5CE20CFAA960FB6F894DEBF2C
S11318300FBECDBFDF91CF911F910F9108950895F1
S1131840CF938091C601882399F0C091E900CF70AD
S11318508091EC00982F917080FD90E8C92B109234
S1131860E9008091E80083FD66DECF70C093E90053
S1131870CF910895FB01DC0104C08D910190801982
S113188021F441505040C8F7881B990B0895FB017F
S1131890DC0102C001900D9241505040D8F70895E8
S11318A0DC0101C06D9341505040E0F70895F89475
S10518B0FFCF64
S11318B2018308000001B6010400000000000000DA
S11318C2008108000001BA010800000000000000C5
S9030000FC
